{
	"contracts/SimpleNabofunding.sol": {
		"Nabo_Crowdfunding": {
			"abi": [
				{
					"inputs": [],
					"name": "AskRefund",
					"outputs": [],
					"stateMutability": "nonpayable",
					"type": "function"
				},
				{
					"inputs": [
						{
							"internalType": "uint256",
							"name": "amount",
							"type": "uint256"
						}
					],
					"name": "NaboPledge",
					"outputs": [],
					"stateMutability": "payable",
					"type": "function"
				},
				{
					"inputs": [
						{
							"internalType": "uint256",
							"name": "numberOfDays",
							"type": "uint256"
						},
						{
							"internalType": "uint256",
							"name": "_goal",
							"type": "uint256"
						}
					],
					"name": "Nabofund",
					"outputs": [],
					"stateMutability": "nonpayable",
					"type": "function"
				},
				{
					"inputs": [],
					"name": "claimFunds",
					"outputs": [],
					"stateMutability": "nonpayable",
					"type": "function"
				},
				{
					"inputs": [
						{
							"internalType": "address",
							"name": "",
							"type": "address"
						}
					],
					"name": "pledgeOf",
					"outputs": [
						{
							"internalType": "uint256",
							"name": "",
							"type": "uint256"
						}
					],
					"stateMutability": "view",
					"type": "function"
				}
			],
			"devdoc": {
				"kind": "dev",
				"methods": {},
				"version": 1
			},
			"evm": {
				"assembly": "    /* \"contracts/SimpleNabofunding.sol\":70:1285  contract Nabo_Crowdfunding {\r... */\n  mstore(0x40, 0x80)\n  callvalue\n  dup1\n  iszero\n  tag_1\n  jumpi\n  0x00\n  dup1\n  revert\ntag_1:\n  pop\n  dataSize(sub_0)\n  dup1\n  dataOffset(sub_0)\n  0x00\n  codecopy\n  0x00\n  return\nstop\n\nsub_0: assembly {\n        /* \"contracts/SimpleNabofunding.sol\":70:1285  contract Nabo_Crowdfunding {\r... */\n      mstore(0x40, 0x80)\n      jumpi(tag_1, lt(calldatasize, 0x04))\n      shr(0xe0, calldataload(0x00))\n      dup1\n      0x52dbea60\n      eq\n      tag_2\n      jumpi\n      dup1\n      0x6b6c0cdf\n      eq\n      tag_3\n      jumpi\n      dup1\n      0x8d4f9cc7\n      eq\n      tag_4\n      jumpi\n      dup1\n      0xac307773\n      eq\n      tag_5\n      jumpi\n      dup1\n      0xc5055f2f\n      eq\n      tag_6\n      jumpi\n    tag_1:\n      0x00\n      dup1\n      revert\n        /* \"contracts/SimpleNabofunding.sol\":218:403  function Nabofund(uint256 numberOfDays, uint256 _goal) public {\r... */\n    tag_2:\n      callvalue\n      dup1\n      iszero\n      tag_7\n      jumpi\n      0x00\n      dup1\n      revert\n    tag_7:\n      pop\n      tag_8\n      0x04\n      dup1\n      calldatasize\n      sub\n      dup2\n      add\n      swap1\n      tag_9\n      swap2\n      swap1\n      tag_10\n      jump\t// in\n    tag_9:\n      tag_11\n      jump\t// in\n    tag_8:\n      stop\n        /* \"contracts/SimpleNabofunding.sol\":411:642  function NaboPledge(uint256 amount) public payable {\r... */\n    tag_3:\n      tag_12\n      0x04\n      dup1\n      calldatasize\n      sub\n      dup2\n      add\n      swap1\n      tag_13\n      swap2\n      swap1\n      tag_14\n      jump\t// in\n    tag_13:\n      tag_15\n      jump\t// in\n    tag_12:\n      stop\n        /* \"contracts/SimpleNabofunding.sol\":960:1282  function AskRefund() public {\r... */\n    tag_4:\n      callvalue\n      dup1\n      iszero\n      tag_16\n      jumpi\n      0x00\n      dup1\n      revert\n    tag_16:\n      pop\n      tag_17\n      tag_18\n      jump\t// in\n    tag_17:\n      stop\n        /* \"contracts/SimpleNabofunding.sol\":650:952  function claimFunds() public   {\r... */\n    tag_5:\n      callvalue\n      dup1\n      iszero\n      tag_19\n      jumpi\n      0x00\n      dup1\n      revert\n    tag_19:\n      pop\n      tag_20\n      tag_21\n      jump\t// in\n    tag_20:\n      stop\n        /* \"contracts/SimpleNabofunding.sol\":166:209  mapping(address => uint256) public pledgeOf */\n    tag_6:\n      callvalue\n      dup1\n      iszero\n      tag_22\n      jumpi\n      0x00\n      dup1\n      revert\n    tag_22:\n      pop\n      tag_23\n      0x04\n      dup1\n      calldatasize\n      sub\n      dup2\n      add\n      swap1\n      tag_24\n      swap2\n      swap1\n      tag_25\n      jump\t// in\n    tag_24:\n      tag_26\n      jump\t// in\n    tag_23:\n      mload(0x40)\n      tag_27\n      swap2\n      swap1\n      tag_28\n      jump\t// in\n    tag_27:\n      mload(0x40)\n      dup1\n      swap2\n      sub\n      swap1\n      return\n        /* \"contracts/SimpleNabofunding.sol\":218:403  function Nabofund(uint256 numberOfDays, uint256 _goal) public {\r... */\n    tag_11:\n        /* \"contracts/SimpleNabofunding.sol\":299:309  msg.sender */\n      caller\n        /* \"contracts/SimpleNabofunding.sol\":291:296  owner */\n      0x00\n      dup1\n        /* \"contracts/SimpleNabofunding.sol\":291:309  owner = msg.sender */\n      0x0100\n      exp\n      dup2\n      sload\n      dup2\n      0xffffffffffffffffffffffffffffffffffffffff\n      mul\n      not\n      and\n      swap1\n      dup4\n      0xffffffffffffffffffffffffffffffffffffffff\n      and\n      mul\n      or\n      swap1\n      sstore\n      pop\n        /* \"contracts/SimpleNabofunding.sol\":365:371  1 days */\n      0x015180\n        /* \"contracts/SimpleNabofunding.sol\":350:362  numberOfDays */\n      dup3\n        /* \"contracts/SimpleNabofunding.sol\":350:371  numberOfDays * 1 days */\n      tag_30\n      swap2\n      swap1\n      tag_31\n      jump\t// in\n    tag_30:\n        /* \"contracts/SimpleNabofunding.sol\":331:346  block.timestamp */\n      timestamp\n        /* \"contracts/SimpleNabofunding.sol\":331:372  block.timestamp + (numberOfDays * 1 days) */\n      tag_32\n      swap2\n      swap1\n      tag_33\n      jump\t// in\n    tag_32:\n        /* \"contracts/SimpleNabofunding.sol\":320:328  deadline */\n      0x01\n        /* \"contracts/SimpleNabofunding.sol\":320:372  deadline = block.timestamp + (numberOfDays * 1 days) */\n      dup2\n      swap1\n      sstore\n      pop\n        /* \"contracts/SimpleNabofunding.sol\":390:395  _goal */\n      dup1\n        /* \"contracts/SimpleNabofunding.sol\":383:387  goal */\n      0x02\n        /* \"contracts/SimpleNabofunding.sol\":383:395  goal = _goal */\n      dup2\n      swap1\n      sstore\n      pop\n        /* \"contracts/SimpleNabofunding.sol\":218:403  function Nabofund(uint256 numberOfDays, uint256 _goal) public {\r... */\n      pop\n      pop\n      jump\t// out\n        /* \"contracts/SimpleNabofunding.sol\":411:642  function NaboPledge(uint256 amount) public payable {\r... */\n    tag_15:\n        /* \"contracts/SimpleNabofunding.sol\":499:507  deadline */\n      sload(0x01)\n        /* \"contracts/SimpleNabofunding.sol\":481:496  block.timestamp */\n      timestamp\n        /* \"contracts/SimpleNabofunding.sol\":481:507  block.timestamp < deadline */\n      lt\n        /* \"contracts/SimpleNabofunding.sol\":473:508  require(block.timestamp < deadline) */\n      tag_35\n      jumpi\n      0x00\n      dup1\n      revert\n    tag_35:\n        /* \"contracts/SimpleNabofunding.sol\":584:590  amount */\n      dup1\n        /* \"contracts/SimpleNabofunding.sol\":571:580  msg.value */\n      callvalue\n        /* \"contracts/SimpleNabofunding.sol\":571:590  msg.value == amount */\n      eq\n        /* \"contracts/SimpleNabofunding.sol\":563:591  require(msg.value == amount) */\n      tag_36\n      jumpi\n      0x00\n      dup1\n      revert\n    tag_36:\n        /* \"contracts/SimpleNabofunding.sol\":628:634  amount */\n      dup1\n        /* \"contracts/SimpleNabofunding.sol\":604:612  pledgeOf */\n      0x03\n        /* \"contracts/SimpleNabofunding.sol\":604:624  pledgeOf[msg.sender] */\n      0x00\n        /* \"contracts/SimpleNabofunding.sol\":613:623  msg.sender */\n      caller\n        /* \"contracts/SimpleNabofunding.sol\":604:624  pledgeOf[msg.sender] */\n      0xffffffffffffffffffffffffffffffffffffffff\n      and\n      0xffffffffffffffffffffffffffffffffffffffff\n      and\n      dup2\n      mstore\n      0x20\n      add\n      swap1\n      dup2\n      mstore\n      0x20\n      add\n      0x00\n      keccak256\n      0x00\n        /* \"contracts/SimpleNabofunding.sol\":604:634  pledgeOf[msg.sender] += amount */\n      dup3\n      dup3\n      sload\n      tag_37\n      swap2\n      swap1\n      tag_33\n      jump\t// in\n    tag_37:\n      swap3\n      pop\n      pop\n      dup2\n      swap1\n      sstore\n      pop\n        /* \"contracts/SimpleNabofunding.sol\":411:642  function NaboPledge(uint256 amount) public payable {\r... */\n      pop\n      jump\t// out\n        /* \"contracts/SimpleNabofunding.sol\":960:1282  function AskRefund() public {\r... */\n    tag_18:\n        /* \"contracts/SimpleNabofunding.sol\":1031:1035  goal */\n      sload(0x02)\n        /* \"contracts/SimpleNabofunding.sol\":1007:1028  address(this).balance */\n      selfbalance\n        /* \"contracts/SimpleNabofunding.sol\":1007:1035  address(this).balance < goal */\n      lt\n        /* \"contracts/SimpleNabofunding.sol\":999:1036  require(address(this).balance < goal) */\n      tag_39\n      jumpi\n      0x00\n      dup1\n      revert\n    tag_39:\n        /* \"contracts/SimpleNabofunding.sol\":1099:1107  deadline */\n      sload(0x01)\n        /* \"contracts/SimpleNabofunding.sol\":1080:1095  block.timestamp */\n      timestamp\n        /* \"contracts/SimpleNabofunding.sol\":1080:1107  block.timestamp >= deadline */\n      lt\n      iszero\n        /* \"contracts/SimpleNabofunding.sol\":1072:1108  require(block.timestamp >= deadline) */\n      tag_40\n      jumpi\n      0x00\n      dup1\n      revert\n    tag_40:\n        /* \"contracts/SimpleNabofunding.sol\":1163:1177  uint256 amount */\n      0x00\n        /* \"contracts/SimpleNabofunding.sol\":1180:1188  pledgeOf */\n      0x03\n        /* \"contracts/SimpleNabofunding.sol\":1180:1200  pledgeOf[msg.sender] */\n      0x00\n        /* \"contracts/SimpleNabofunding.sol\":1189:1199  msg.sender */\n      caller\n        /* \"contracts/SimpleNabofunding.sol\":1180:1200  pledgeOf[msg.sender] */\n      0xffffffffffffffffffffffffffffffffffffffff\n      and\n      0xffffffffffffffffffffffffffffffffffffffff\n      and\n      dup2\n      mstore\n      0x20\n      add\n      swap1\n      dup2\n      mstore\n      0x20\n      add\n      0x00\n      keccak256\n      sload\n        /* \"contracts/SimpleNabofunding.sol\":1163:1200  uint256 amount = pledgeOf[msg.sender] */\n      swap1\n      pop\n        /* \"contracts/SimpleNabofunding.sol\":1234:1235  0 */\n      0x00\n        /* \"contracts/SimpleNabofunding.sol\":1211:1219  pledgeOf */\n      0x03\n        /* \"contracts/SimpleNabofunding.sol\":1211:1231  pledgeOf[msg.sender] */\n      0x00\n        /* \"contracts/SimpleNabofunding.sol\":1220:1230  msg.sender */\n      caller\n        /* \"contracts/SimpleNabofunding.sol\":1211:1231  pledgeOf[msg.sender] */\n      0xffffffffffffffffffffffffffffffffffffffff\n      and\n      0xffffffffffffffffffffffffffffffffffffffff\n      and\n      dup2\n      mstore\n      0x20\n      add\n      swap1\n      dup2\n      mstore\n      0x20\n      add\n      0x00\n      keccak256\n        /* \"contracts/SimpleNabofunding.sol\":1211:1235  pledgeOf[msg.sender] = 0 */\n      dup2\n      swap1\n      sstore\n      pop\n        /* \"contracts/SimpleNabofunding.sol\":988:1282  {\r... */\n      pop\n        /* \"contracts/SimpleNabofunding.sol\":960:1282  function AskRefund() public {\r... */\n      jump\t// out\n        /* \"contracts/SimpleNabofunding.sol\":650:952  function claimFunds() public   {\r... */\n    tag_21:\n        /* \"contracts/SimpleNabofunding.sol\":725:729  goal */\n      sload(0x02)\n        /* \"contracts/SimpleNabofunding.sol\":700:721  address(this).balance */\n      selfbalance\n        /* \"contracts/SimpleNabofunding.sol\":700:729  address(this).balance >= goal */\n      lt\n      iszero\n        /* \"contracts/SimpleNabofunding.sol\":692:730  require(address(this).balance >= goal) */\n      tag_42\n      jumpi\n      0x00\n      dup1\n      revert\n    tag_42:\n        /* \"contracts/SimpleNabofunding.sol\":788:796  deadline */\n      sload(0x01)\n        /* \"contracts/SimpleNabofunding.sol\":769:784  block.timestamp */\n      timestamp\n        /* \"contracts/SimpleNabofunding.sol\":769:796  block.timestamp >= deadline */\n      lt\n      iszero\n        /* \"contracts/SimpleNabofunding.sol\":761:797  require(block.timestamp >= deadline) */\n      tag_43\n      jumpi\n      0x00\n      dup1\n      revert\n    tag_43:\n        /* \"contracts/SimpleNabofunding.sol\":872:877  owner */\n      0x00\n      dup1\n      sload\n      swap1\n      0x0100\n      exp\n      swap1\n      div\n      0xffffffffffffffffffffffffffffffffffffffff\n      and\n        /* \"contracts/SimpleNabofunding.sol\":858:877  msg.sender == owner */\n      0xffffffffffffffffffffffffffffffffffffffff\n      and\n        /* \"contracts/SimpleNabofunding.sol\":858:868  msg.sender */\n      caller\n        /* \"contracts/SimpleNabofunding.sol\":858:877  msg.sender == owner */\n      0xffffffffffffffffffffffffffffffffffffffff\n      and\n      eq\n        /* \"contracts/SimpleNabofunding.sol\":850:878  require(msg.sender == owner) */\n      tag_44\n      jumpi\n      0x00\n      dup1\n      revert\n    tag_44:\n        /* \"contracts/SimpleNabofunding.sol\":650:952  function claimFunds() public   {\r... */\n      jump\t// out\n        /* \"contracts/SimpleNabofunding.sol\":166:209  mapping(address => uint256) public pledgeOf */\n    tag_26:\n      mstore(0x20, 0x03)\n      dup1\n      0x00\n      mstore\n      keccak256(0x00, 0x40)\n      0x00\n      swap2\n      pop\n      swap1\n      pop\n      sload\n      dup2\n      jump\t// out\n        /* \"#utility.yul\":7:146   */\n    tag_46:\n        /* \"#utility.yul\":53:58   */\n      0x00\n        /* \"#utility.yul\":91:97   */\n      dup2\n        /* \"#utility.yul\":78:98   */\n      calldataload\n        /* \"#utility.yul\":69:98   */\n      swap1\n      pop\n        /* \"#utility.yul\":107:140   */\n      tag_48\n        /* \"#utility.yul\":134:139   */\n      dup2\n        /* \"#utility.yul\":107:140   */\n      tag_49\n      jump\t// in\n    tag_48:\n        /* \"#utility.yul\":7:146   */\n      swap3\n      swap2\n      pop\n      pop\n      jump\t// out\n        /* \"#utility.yul\":152:291   */\n    tag_50:\n        /* \"#utility.yul\":198:203   */\n      0x00\n        /* \"#utility.yul\":236:242   */\n      dup2\n        /* \"#utility.yul\":223:243   */\n      calldataload\n        /* \"#utility.yul\":214:243   */\n      swap1\n      pop\n        /* \"#utility.yul\":252:285   */\n      tag_52\n        /* \"#utility.yul\":279:284   */\n      dup2\n        /* \"#utility.yul\":252:285   */\n      tag_53\n      jump\t// in\n    tag_52:\n        /* \"#utility.yul\":152:291   */\n      swap3\n      swap2\n      pop\n      pop\n      jump\t// out\n        /* \"#utility.yul\":297:626   */\n    tag_25:\n        /* \"#utility.yul\":356:362   */\n      0x00\n        /* \"#utility.yul\":405:407   */\n      0x20\n        /* \"#utility.yul\":393:402   */\n      dup3\n        /* \"#utility.yul\":384:391   */\n      dup5\n        /* \"#utility.yul\":380:403   */\n      sub\n        /* \"#utility.yul\":376:408   */\n      slt\n        /* \"#utility.yul\":373:492   */\n      iszero\n      tag_55\n      jumpi\n        /* \"#utility.yul\":411:490   */\n      tag_56\n      tag_57\n      jump\t// in\n    tag_56:\n        /* \"#utility.yul\":373:492   */\n    tag_55:\n        /* \"#utility.yul\":531:532   */\n      0x00\n        /* \"#utility.yul\":556:609   */\n      tag_58\n        /* \"#utility.yul\":601:608   */\n      dup5\n        /* \"#utility.yul\":592:598   */\n      dup3\n        /* \"#utility.yul\":581:590   */\n      dup6\n        /* \"#utility.yul\":577:599   */\n      add\n        /* \"#utility.yul\":556:609   */\n      tag_46\n      jump\t// in\n    tag_58:\n        /* \"#utility.yul\":546:609   */\n      swap2\n      pop\n        /* \"#utility.yul\":502:619   */\n      pop\n        /* \"#utility.yul\":297:626   */\n      swap3\n      swap2\n      pop\n      pop\n      jump\t// out\n        /* \"#utility.yul\":632:961   */\n    tag_14:\n        /* \"#utility.yul\":691:697   */\n      0x00\n        /* \"#utility.yul\":740:742   */\n      0x20\n        /* \"#utility.yul\":728:737   */\n      dup3\n        /* \"#utility.yul\":719:726   */\n      dup5\n        /* \"#utility.yul\":715:738   */\n      sub\n        /* \"#utility.yul\":711:743   */\n      slt\n        /* \"#utility.yul\":708:827   */\n      iszero\n      tag_60\n      jumpi\n        /* \"#utility.yul\":746:825   */\n      tag_61\n      tag_57\n      jump\t// in\n    tag_61:\n        /* \"#utility.yul\":708:827   */\n    tag_60:\n        /* \"#utility.yul\":866:867   */\n      0x00\n        /* \"#utility.yul\":891:944   */\n      tag_62\n        /* \"#utility.yul\":936:943   */\n      dup5\n        /* \"#utility.yul\":927:933   */\n      dup3\n        /* \"#utility.yul\":916:925   */\n      dup6\n        /* \"#utility.yul\":912:934   */\n      add\n        /* \"#utility.yul\":891:944   */\n      tag_50\n      jump\t// in\n    tag_62:\n        /* \"#utility.yul\":881:944   */\n      swap2\n      pop\n        /* \"#utility.yul\":837:954   */\n      pop\n        /* \"#utility.yul\":632:961   */\n      swap3\n      swap2\n      pop\n      pop\n      jump\t// out\n        /* \"#utility.yul\":967:1441   */\n    tag_10:\n        /* \"#utility.yul\":1035:1041   */\n      0x00\n        /* \"#utility.yul\":1043:1049   */\n      dup1\n        /* \"#utility.yul\":1092:1094   */\n      0x40\n        /* \"#utility.yul\":1080:1089   */\n      dup4\n        /* \"#utility.yul\":1071:1078   */\n      dup6\n        /* \"#utility.yul\":1067:1090   */\n      sub\n        /* \"#utility.yul\":1063:1095   */\n      slt\n        /* \"#utility.yul\":1060:1179   */\n      iszero\n      tag_64\n      jumpi\n        /* \"#utility.yul\":1098:1177   */\n      tag_65\n      tag_57\n      jump\t// in\n    tag_65:\n        /* \"#utility.yul\":1060:1179   */\n    tag_64:\n        /* \"#utility.yul\":1218:1219   */\n      0x00\n        /* \"#utility.yul\":1243:1296   */\n      tag_66\n        /* \"#utility.yul\":1288:1295   */\n      dup6\n        /* \"#utility.yul\":1279:1285   */\n      dup3\n        /* \"#utility.yul\":1268:1277   */\n      dup7\n        /* \"#utility.yul\":1264:1286   */\n      add\n        /* \"#utility.yul\":1243:1296   */\n      tag_50\n      jump\t// in\n    tag_66:\n        /* \"#utility.yul\":1233:1296   */\n      swap3\n      pop\n        /* \"#utility.yul\":1189:1306   */\n      pop\n        /* \"#utility.yul\":1345:1347   */\n      0x20\n        /* \"#utility.yul\":1371:1424   */\n      tag_67\n        /* \"#utility.yul\":1416:1423   */\n      dup6\n        /* \"#utility.yul\":1407:1413   */\n      dup3\n        /* \"#utility.yul\":1396:1405   */\n      dup7\n        /* \"#utility.yul\":1392:1414   */\n      add\n        /* \"#utility.yul\":1371:1424   */\n      tag_50\n      jump\t// in\n    tag_67:\n        /* \"#utility.yul\":1361:1424   */\n      swap2\n      pop\n        /* \"#utility.yul\":1316:1434   */\n      pop\n        /* \"#utility.yul\":967:1441   */\n      swap3\n      pop\n      swap3\n      swap1\n      pop\n      jump\t// out\n        /* \"#utility.yul\":1447:1565   */\n    tag_68:\n        /* \"#utility.yul\":1534:1558   */\n      tag_70\n        /* \"#utility.yul\":1552:1557   */\n      dup2\n        /* \"#utility.yul\":1534:1558   */\n      tag_71\n      jump\t// in\n    tag_70:\n        /* \"#utility.yul\":1529:1532   */\n      dup3\n        /* \"#utility.yul\":1522:1559   */\n      mstore\n        /* \"#utility.yul\":1447:1565   */\n      pop\n      pop\n      jump\t// out\n        /* \"#utility.yul\":1571:1793   */\n    tag_28:\n        /* \"#utility.yul\":1664:1668   */\n      0x00\n        /* \"#utility.yul\":1702:1704   */\n      0x20\n        /* \"#utility.yul\":1691:1700   */\n      dup3\n        /* \"#utility.yul\":1687:1705   */\n      add\n        /* \"#utility.yul\":1679:1705   */\n      swap1\n      pop\n        /* \"#utility.yul\":1715:1786   */\n      tag_73\n        /* \"#utility.yul\":1783:1784   */\n      0x00\n        /* \"#utility.yul\":1772:1781   */\n      dup4\n        /* \"#utility.yul\":1768:1785   */\n      add\n        /* \"#utility.yul\":1759:1765   */\n      dup5\n        /* \"#utility.yul\":1715:1786   */\n      tag_68\n      jump\t// in\n    tag_73:\n        /* \"#utility.yul\":1571:1793   */\n      swap3\n      swap2\n      pop\n      pop\n      jump\t// out\n        /* \"#utility.yul\":1880:2185   */\n    tag_33:\n        /* \"#utility.yul\":1920:1923   */\n      0x00\n        /* \"#utility.yul\":1939:1959   */\n      tag_77\n        /* \"#utility.yul\":1957:1958   */\n      dup3\n        /* \"#utility.yul\":1939:1959   */\n      tag_71\n      jump\t// in\n    tag_77:\n        /* \"#utility.yul\":1934:1959   */\n      swap2\n      pop\n        /* \"#utility.yul\":1973:1993   */\n      tag_78\n        /* \"#utility.yul\":1991:1992   */\n      dup4\n        /* \"#utility.yul\":1973:1993   */\n      tag_71\n      jump\t// in\n    tag_78:\n        /* \"#utility.yul\":1968:1993   */\n      swap3\n      pop\n        /* \"#utility.yul\":2127:2128   */\n      dup3\n        /* \"#utility.yul\":2059:2125   */\n      0xffffffffffffffffffffffffffffffffffffffffffffffffffffffffffffffff\n        /* \"#utility.yul\":2055:2129   */\n      sub\n        /* \"#utility.yul\":2052:2053   */\n      dup3\n        /* \"#utility.yul\":2049:2130   */\n      gt\n        /* \"#utility.yul\":2046:2153   */\n      iszero\n      tag_79\n      jumpi\n        /* \"#utility.yul\":2133:2151   */\n      tag_80\n      tag_81\n      jump\t// in\n    tag_80:\n        /* \"#utility.yul\":2046:2153   */\n    tag_79:\n        /* \"#utility.yul\":2177:2178   */\n      dup3\n        /* \"#utility.yul\":2174:2175   */\n      dup3\n        /* \"#utility.yul\":2170:2179   */\n      add\n        /* \"#utility.yul\":2163:2179   */\n      swap1\n      pop\n        /* \"#utility.yul\":1880:2185   */\n      swap3\n      swap2\n      pop\n      pop\n      jump\t// out\n        /* \"#utility.yul\":2191:2539   */\n    tag_31:\n        /* \"#utility.yul\":2231:2238   */\n      0x00\n        /* \"#utility.yul\":2254:2274   */\n      tag_83\n        /* \"#utility.yul\":2272:2273   */\n      dup3\n        /* \"#utility.yul\":2254:2274   */\n      tag_71\n      jump\t// in\n    tag_83:\n        /* \"#utility.yul\":2249:2274   */\n      swap2\n      pop\n        /* \"#utility.yul\":2288:2308   */\n      tag_84\n        /* \"#utility.yul\":2306:2307   */\n      dup4\n        /* \"#utility.yul\":2288:2308   */\n      tag_71\n      jump\t// in\n    tag_84:\n        /* \"#utility.yul\":2283:2308   */\n      swap3\n      pop\n        /* \"#utility.yul\":2476:2477   */\n      dup2\n        /* \"#utility.yul\":2408:2474   */\n      0xffffffffffffffffffffffffffffffffffffffffffffffffffffffffffffffff\n        /* \"#utility.yul\":2404:2478   */\n      div\n        /* \"#utility.yul\":2401:2402   */\n      dup4\n        /* \"#utility.yul\":2398:2479   */\n      gt\n        /* \"#utility.yul\":2393:2394   */\n      dup3\n        /* \"#utility.yul\":2386:2395   */\n      iszero\n        /* \"#utility.yul\":2379:2396   */\n      iszero\n        /* \"#utility.yul\":2375:2480   */\n      and\n        /* \"#utility.yul\":2372:2503   */\n      iszero\n      tag_85\n      jumpi\n        /* \"#utility.yul\":2483:2501   */\n      tag_86\n      tag_81\n      jump\t// in\n    tag_86:\n        /* \"#utility.yul\":2372:2503   */\n    tag_85:\n        /* \"#utility.yul\":2531:2532   */\n      dup3\n        /* \"#utility.yul\":2528:2529   */\n      dup3\n        /* \"#utility.yul\":2524:2533   */\n      mul\n        /* \"#utility.yul\":2513:2533   */\n      swap1\n      pop\n        /* \"#utility.yul\":2191:2539   */\n      swap3\n      swap2\n      pop\n      pop\n      jump\t// out\n        /* \"#utility.yul\":2545:2641   */\n    tag_87:\n        /* \"#utility.yul\":2582:2589   */\n      0x00\n        /* \"#utility.yul\":2611:2635   */\n      tag_89\n        /* \"#utility.yul\":2629:2634   */\n      dup3\n        /* \"#utility.yul\":2611:2635   */\n      tag_90\n      jump\t// in\n    tag_89:\n        /* \"#utility.yul\":2600:2635   */\n      swap1\n      pop\n        /* \"#utility.yul\":2545:2641   */\n      swap2\n      swap1\n      pop\n      jump\t// out\n        /* \"#utility.yul\":2647:2773   */\n    tag_90:\n        /* \"#utility.yul\":2684:2691   */\n      0x00\n        /* \"#utility.yul\":2724:2766   */\n      0xffffffffffffffffffffffffffffffffffffffff\n        /* \"#utility.yul\":2717:2722   */\n      dup3\n        /* \"#utility.yul\":2713:2767   */\n      and\n        /* \"#utility.yul\":2702:2767   */\n      swap1\n      pop\n        /* \"#utility.yul\":2647:2773   */\n      swap2\n      swap1\n      pop\n      jump\t// out\n        /* \"#utility.yul\":2779:2856   */\n    tag_71:\n        /* \"#utility.yul\":2816:2823   */\n      0x00\n        /* \"#utility.yul\":2845:2850   */\n      dup2\n        /* \"#utility.yul\":2834:2850   */\n      swap1\n      pop\n        /* \"#utility.yul\":2779:2856   */\n      swap2\n      swap1\n      pop\n      jump\t// out\n        /* \"#utility.yul\":2862:3042   */\n    tag_81:\n        /* \"#utility.yul\":2910:2987   */\n      0x4e487b7100000000000000000000000000000000000000000000000000000000\n        /* \"#utility.yul\":2907:2908   */\n      0x00\n        /* \"#utility.yul\":2900:2988   */\n      mstore\n        /* \"#utility.yul\":3007:3011   */\n      0x11\n        /* \"#utility.yul\":3004:3005   */\n      0x04\n        /* \"#utility.yul\":2997:3012   */\n      mstore\n        /* \"#utility.yul\":3031:3035   */\n      0x24\n        /* \"#utility.yul\":3028:3029   */\n      0x00\n        /* \"#utility.yul\":3021:3036   */\n      revert\n        /* \"#utility.yul\":3171:3288   */\n    tag_57:\n        /* \"#utility.yul\":3280:3281   */\n      0x00\n        /* \"#utility.yul\":3277:3278   */\n      dup1\n        /* \"#utility.yul\":3270:3282   */\n      revert\n        /* \"#utility.yul\":3294:3416   */\n    tag_49:\n        /* \"#utility.yul\":3367:3391   */\n      tag_98\n        /* \"#utility.yul\":3385:3390   */\n      dup2\n        /* \"#utility.yul\":3367:3391   */\n      tag_87\n      jump\t// in\n    tag_98:\n        /* \"#utility.yul\":3360:3365   */\n      dup2\n        /* \"#utility.yul\":3357:3392   */\n      eq\n        /* \"#utility.yul\":3347:3410   */\n      tag_99\n      jumpi\n        /* \"#utility.yul\":3406:3407   */\n      0x00\n        /* \"#utility.yul\":3403:3404   */\n      dup1\n        /* \"#utility.yul\":3396:3408   */\n      revert\n        /* \"#utility.yul\":3347:3410   */\n    tag_99:\n        /* \"#utility.yul\":3294:3416   */\n      pop\n      jump\t// out\n        /* \"#utility.yul\":3422:3544   */\n    tag_53:\n        /* \"#utility.yul\":3495:3519   */\n      tag_101\n        /* \"#utility.yul\":3513:3518   */\n      dup2\n        /* \"#utility.yul\":3495:3519   */\n      tag_71\n      jump\t// in\n    tag_101:\n        /* \"#utility.yul\":3488:3493   */\n      dup2\n        /* \"#utility.yul\":3485:3520   */\n      eq\n        /* \"#utility.yul\":3475:3538   */\n      tag_102\n      jumpi\n        /* \"#utility.yul\":3534:3535   */\n      0x00\n        /* \"#utility.yul\":3531:3532   */\n      dup1\n        /* \"#utility.yul\":3524:3536   */\n      revert\n        /* \"#utility.yul\":3475:3538   */\n    tag_102:\n        /* \"#utility.yul\":3422:3544   */\n      pop\n      jump\t// out\n\n    auxdata: 0xa264697066735822122074b1593d9f419a1c8634d33e704a2856b9704383e21cdee9c9c8e1d442ad137f64736f6c63430008070033\n}\n",
				"bytecode": {
					"linkReferences": {},
					"object": "608060405234801561001057600080fd5b50610588806100206000396000f3fe60806040526004361061004a5760003560e01c806352dbea601461004f5780636b6c0cdf146100785780638d4f9cc714610094578063ac307773146100ab578063c5055f2f146100c2575b600080fd5b34801561005b57600080fd5b506100766004803603810190610071919061039a565b6100ff565b005b610092600480360381019061008d919061036d565b61016a565b005b3480156100a057600080fd5b506100a96101dd565b005b3480156100b757600080fd5b506100c0610286565b005b3480156100ce57600080fd5b506100e960048036038101906100e49190610340565b6102fe565b6040516100f691906103e9565b60405180910390f35b336000806101000a81548173ffffffffffffffffffffffffffffffffffffffff021916908373ffffffffffffffffffffffffffffffffffffffff160217905550620151808261014e919061045a565b426101599190610404565b600181905550806002819055505050565b600154421061017857600080fd5b80341461018457600080fd5b80600360003373ffffffffffffffffffffffffffffffffffffffff1673ffffffffffffffffffffffffffffffffffffffff16815260200190815260200160002060008282546101d39190610404565b9250508190555050565b60025447106101eb57600080fd5b6001544210156101fa57600080fd5b6000600360003373ffffffffffffffffffffffffffffffffffffffff1673ffffffffffffffffffffffffffffffffffffffff1681526020019081526020016000205490506000600360003373ffffffffffffffffffffffffffffffffffffffff1673ffffffffffffffffffffffffffffffffffffffff1681526020019081526020016000208190555050565b60025447101561029557600080fd5b6001544210156102a457600080fd5b60008054906101000a900473ffffffffffffffffffffffffffffffffffffffff1673ffffffffffffffffffffffffffffffffffffffff163373ffffffffffffffffffffffffffffffffffffffff16146102fc57600080fd5b565b60036020528060005260406000206000915090505481565b60008135905061032581610524565b92915050565b60008135905061033a8161053b565b92915050565b6000602082840312156103565761035561051f565b5b600061036484828501610316565b91505092915050565b6000602082840312156103835761038261051f565b5b60006103918482850161032b565b91505092915050565b600080604083850312156103b1576103b061051f565b5b60006103bf8582860161032b565b92505060206103d08582860161032b565b9150509250929050565b6103e3816104e6565b82525050565b60006020820190506103fe60008301846103da565b92915050565b600061040f826104e6565b915061041a836104e6565b9250827fffffffffffffffffffffffffffffffffffffffffffffffffffffffffffffffff0382111561044f5761044e6104f0565b5b828201905092915050565b6000610465826104e6565b9150610470836104e6565b9250817fffffffffffffffffffffffffffffffffffffffffffffffffffffffffffffffff04831182151516156104a9576104a86104f0565b5b828202905092915050565b60006104bf826104c6565b9050919050565b600073ffffffffffffffffffffffffffffffffffffffff82169050919050565b6000819050919050565b7f4e487b7100000000000000000000000000000000000000000000000000000000600052601160045260246000fd5b600080fd5b61052d816104b4565b811461053857600080fd5b50565b610544816104e6565b811461054f57600080fd5b5056fea264697066735822122074b1593d9f419a1c8634d33e704a2856b9704383e21cdee9c9c8e1d442ad137f64736f6c63430008070033",
					"opcodes": "PUSH1 0x80 PUSH1 0x40 MSTORE CALLVALUE DUP1 ISZERO PUSH2 0x10 JUMPI PUSH1 0x0 DUP1 REVERT JUMPDEST POP PUSH2 0x588 DUP1 PUSH2 0x20 PUSH1 0x0 CODECOPY PUSH1 0x0 RETURN INVALID PUSH1 0x80 PUSH1 0x40 MSTORE PUSH1 0x4 CALLDATASIZE LT PUSH2 0x4A JUMPI PUSH1 0x0 CALLDATALOAD PUSH1 0xE0 SHR DUP1 PUSH4 0x52DBEA60 EQ PUSH2 0x4F JUMPI DUP1 PUSH4 0x6B6C0CDF EQ PUSH2 0x78 JUMPI DUP1 PUSH4 0x8D4F9CC7 EQ PUSH2 0x94 JUMPI DUP1 PUSH4 0xAC307773 EQ PUSH2 0xAB JUMPI DUP1 PUSH4 0xC5055F2F EQ PUSH2 0xC2 JUMPI JUMPDEST PUSH1 0x0 DUP1 REVERT JUMPDEST CALLVALUE DUP1 ISZERO PUSH2 0x5B JUMPI PUSH1 0x0 DUP1 REVERT JUMPDEST POP PUSH2 0x76 PUSH1 0x4 DUP1 CALLDATASIZE SUB DUP2 ADD SWAP1 PUSH2 0x71 SWAP2 SWAP1 PUSH2 0x39A JUMP JUMPDEST PUSH2 0xFF JUMP JUMPDEST STOP JUMPDEST PUSH2 0x92 PUSH1 0x4 DUP1 CALLDATASIZE SUB DUP2 ADD SWAP1 PUSH2 0x8D SWAP2 SWAP1 PUSH2 0x36D JUMP JUMPDEST PUSH2 0x16A JUMP JUMPDEST STOP JUMPDEST CALLVALUE DUP1 ISZERO PUSH2 0xA0 JUMPI PUSH1 0x0 DUP1 REVERT JUMPDEST POP PUSH2 0xA9 PUSH2 0x1DD JUMP JUMPDEST STOP JUMPDEST CALLVALUE DUP1 ISZERO PUSH2 0xB7 JUMPI PUSH1 0x0 DUP1 REVERT JUMPDEST POP PUSH2 0xC0 PUSH2 0x286 JUMP JUMPDEST STOP JUMPDEST CALLVALUE DUP1 ISZERO PUSH2 0xCE JUMPI PUSH1 0x0 DUP1 REVERT JUMPDEST POP PUSH2 0xE9 PUSH1 0x4 DUP1 CALLDATASIZE SUB DUP2 ADD SWAP1 PUSH2 0xE4 SWAP2 SWAP1 PUSH2 0x340 JUMP JUMPDEST PUSH2 0x2FE JUMP JUMPDEST PUSH1 0x40 MLOAD PUSH2 0xF6 SWAP2 SWAP1 PUSH2 0x3E9 JUMP JUMPDEST PUSH1 0x40 MLOAD DUP1 SWAP2 SUB SWAP1 RETURN JUMPDEST CALLER PUSH1 0x0 DUP1 PUSH2 0x100 EXP DUP2 SLOAD DUP2 PUSH20 0xFFFFFFFFFFFFFFFFFFFFFFFFFFFFFFFFFFFFFFFF MUL NOT AND SWAP1 DUP4 PUSH20 0xFFFFFFFFFFFFFFFFFFFFFFFFFFFFFFFFFFFFFFFF AND MUL OR SWAP1 SSTORE POP PUSH3 0x15180 DUP3 PUSH2 0x14E SWAP2 SWAP1 PUSH2 0x45A JUMP JUMPDEST TIMESTAMP PUSH2 0x159 SWAP2 SWAP1 PUSH2 0x404 JUMP JUMPDEST PUSH1 0x1 DUP2 SWAP1 SSTORE POP DUP1 PUSH1 0x2 DUP2 SWAP1 SSTORE POP POP POP JUMP JUMPDEST PUSH1 0x1 SLOAD TIMESTAMP LT PUSH2 0x178 JUMPI PUSH1 0x0 DUP1 REVERT JUMPDEST DUP1 CALLVALUE EQ PUSH2 0x184 JUMPI PUSH1 0x0 DUP1 REVERT JUMPDEST DUP1 PUSH1 0x3 PUSH1 0x0 CALLER PUSH20 0xFFFFFFFFFFFFFFFFFFFFFFFFFFFFFFFFFFFFFFFF AND PUSH20 0xFFFFFFFFFFFFFFFFFFFFFFFFFFFFFFFFFFFFFFFF AND DUP2 MSTORE PUSH1 0x20 ADD SWAP1 DUP2 MSTORE PUSH1 0x20 ADD PUSH1 0x0 KECCAK256 PUSH1 0x0 DUP3 DUP3 SLOAD PUSH2 0x1D3 SWAP2 SWAP1 PUSH2 0x404 JUMP JUMPDEST SWAP3 POP POP DUP2 SWAP1 SSTORE POP POP JUMP JUMPDEST PUSH1 0x2 SLOAD SELFBALANCE LT PUSH2 0x1EB JUMPI PUSH1 0x0 DUP1 REVERT JUMPDEST PUSH1 0x1 SLOAD TIMESTAMP LT ISZERO PUSH2 0x1FA JUMPI PUSH1 0x0 DUP1 REVERT JUMPDEST PUSH1 0x0 PUSH1 0x3 PUSH1 0x0 CALLER PUSH20 0xFFFFFFFFFFFFFFFFFFFFFFFFFFFFFFFFFFFFFFFF AND PUSH20 0xFFFFFFFFFFFFFFFFFFFFFFFFFFFFFFFFFFFFFFFF AND DUP2 MSTORE PUSH1 0x20 ADD SWAP1 DUP2 MSTORE PUSH1 0x20 ADD PUSH1 0x0 KECCAK256 SLOAD SWAP1 POP PUSH1 0x0 PUSH1 0x3 PUSH1 0x0 CALLER PUSH20 0xFFFFFFFFFFFFFFFFFFFFFFFFFFFFFFFFFFFFFFFF AND PUSH20 0xFFFFFFFFFFFFFFFFFFFFFFFFFFFFFFFFFFFFFFFF AND DUP2 MSTORE PUSH1 0x20 ADD SWAP1 DUP2 MSTORE PUSH1 0x20 ADD PUSH1 0x0 KECCAK256 DUP2 SWAP1 SSTORE POP POP JUMP JUMPDEST PUSH1 0x2 SLOAD SELFBALANCE LT ISZERO PUSH2 0x295 JUMPI PUSH1 0x0 DUP1 REVERT JUMPDEST PUSH1 0x1 SLOAD TIMESTAMP LT ISZERO PUSH2 0x2A4 JUMPI PUSH1 0x0 DUP1 REVERT JUMPDEST PUSH1 0x0 DUP1 SLOAD SWAP1 PUSH2 0x100 EXP SWAP1 DIV PUSH20 0xFFFFFFFFFFFFFFFFFFFFFFFFFFFFFFFFFFFFFFFF AND PUSH20 0xFFFFFFFFFFFFFFFFFFFFFFFFFFFFFFFFFFFFFFFF AND CALLER PUSH20 0xFFFFFFFFFFFFFFFFFFFFFFFFFFFFFFFFFFFFFFFF AND EQ PUSH2 0x2FC JUMPI PUSH1 0x0 DUP1 REVERT JUMPDEST JUMP JUMPDEST PUSH1 0x3 PUSH1 0x20 MSTORE DUP1 PUSH1 0x0 MSTORE PUSH1 0x40 PUSH1 0x0 KECCAK256 PUSH1 0x0 SWAP2 POP SWAP1 POP SLOAD DUP2 JUMP JUMPDEST PUSH1 0x0 DUP2 CALLDATALOAD SWAP1 POP PUSH2 0x325 DUP2 PUSH2 0x524 JUMP JUMPDEST SWAP3 SWAP2 POP POP JUMP JUMPDEST PUSH1 0x0 DUP2 CALLDATALOAD SWAP1 POP PUSH2 0x33A DUP2 PUSH2 0x53B JUMP JUMPDEST SWAP3 SWAP2 POP POP JUMP JUMPDEST PUSH1 0x0 PUSH1 0x20 DUP3 DUP5 SUB SLT ISZERO PUSH2 0x356 JUMPI PUSH2 0x355 PUSH2 0x51F JUMP JUMPDEST JUMPDEST PUSH1 0x0 PUSH2 0x364 DUP5 DUP3 DUP6 ADD PUSH2 0x316 JUMP JUMPDEST SWAP2 POP POP SWAP3 SWAP2 POP POP JUMP JUMPDEST PUSH1 0x0 PUSH1 0x20 DUP3 DUP5 SUB SLT ISZERO PUSH2 0x383 JUMPI PUSH2 0x382 PUSH2 0x51F JUMP JUMPDEST JUMPDEST PUSH1 0x0 PUSH2 0x391 DUP5 DUP3 DUP6 ADD PUSH2 0x32B JUMP JUMPDEST SWAP2 POP POP SWAP3 SWAP2 POP POP JUMP JUMPDEST PUSH1 0x0 DUP1 PUSH1 0x40 DUP4 DUP6 SUB SLT ISZERO PUSH2 0x3B1 JUMPI PUSH2 0x3B0 PUSH2 0x51F JUMP JUMPDEST JUMPDEST PUSH1 0x0 PUSH2 0x3BF DUP6 DUP3 DUP7 ADD PUSH2 0x32B JUMP JUMPDEST SWAP3 POP POP PUSH1 0x20 PUSH2 0x3D0 DUP6 DUP3 DUP7 ADD PUSH2 0x32B JUMP JUMPDEST SWAP2 POP POP SWAP3 POP SWAP3 SWAP1 POP JUMP JUMPDEST PUSH2 0x3E3 DUP2 PUSH2 0x4E6 JUMP JUMPDEST DUP3 MSTORE POP POP JUMP JUMPDEST PUSH1 0x0 PUSH1 0x20 DUP3 ADD SWAP1 POP PUSH2 0x3FE PUSH1 0x0 DUP4 ADD DUP5 PUSH2 0x3DA JUMP JUMPDEST SWAP3 SWAP2 POP POP JUMP JUMPDEST PUSH1 0x0 PUSH2 0x40F DUP3 PUSH2 0x4E6 JUMP JUMPDEST SWAP2 POP PUSH2 0x41A DUP4 PUSH2 0x4E6 JUMP JUMPDEST SWAP3 POP DUP3 PUSH32 0xFFFFFFFFFFFFFFFFFFFFFFFFFFFFFFFFFFFFFFFFFFFFFFFFFFFFFFFFFFFFFFFF SUB DUP3 GT ISZERO PUSH2 0x44F JUMPI PUSH2 0x44E PUSH2 0x4F0 JUMP JUMPDEST JUMPDEST DUP3 DUP3 ADD SWAP1 POP SWAP3 SWAP2 POP POP JUMP JUMPDEST PUSH1 0x0 PUSH2 0x465 DUP3 PUSH2 0x4E6 JUMP JUMPDEST SWAP2 POP PUSH2 0x470 DUP4 PUSH2 0x4E6 JUMP JUMPDEST SWAP3 POP DUP2 PUSH32 0xFFFFFFFFFFFFFFFFFFFFFFFFFFFFFFFFFFFFFFFFFFFFFFFFFFFFFFFFFFFFFFFF DIV DUP4 GT DUP3 ISZERO ISZERO AND ISZERO PUSH2 0x4A9 JUMPI PUSH2 0x4A8 PUSH2 0x4F0 JUMP JUMPDEST JUMPDEST DUP3 DUP3 MUL SWAP1 POP SWAP3 SWAP2 POP POP JUMP JUMPDEST PUSH1 0x0 PUSH2 0x4BF DUP3 PUSH2 0x4C6 JUMP JUMPDEST SWAP1 POP SWAP2 SWAP1 POP JUMP JUMPDEST PUSH1 0x0 PUSH20 0xFFFFFFFFFFFFFFFFFFFFFFFFFFFFFFFFFFFFFFFF DUP3 AND SWAP1 POP SWAP2 SWAP1 POP JUMP JUMPDEST PUSH1 0x0 DUP2 SWAP1 POP SWAP2 SWAP1 POP JUMP JUMPDEST PUSH32 0x4E487B7100000000000000000000000000000000000000000000000000000000 PUSH1 0x0 MSTORE PUSH1 0x11 PUSH1 0x4 MSTORE PUSH1 0x24 PUSH1 0x0 REVERT JUMPDEST PUSH1 0x0 DUP1 REVERT JUMPDEST PUSH2 0x52D DUP2 PUSH2 0x4B4 JUMP JUMPDEST DUP2 EQ PUSH2 0x538 JUMPI PUSH1 0x0 DUP1 REVERT JUMPDEST POP JUMP JUMPDEST PUSH2 0x544 DUP2 PUSH2 0x4E6 JUMP JUMPDEST DUP2 EQ PUSH2 0x54F JUMPI PUSH1 0x0 DUP1 REVERT JUMPDEST POP JUMP INVALID LOG2 PUSH5 0x6970667358 0x22 SLT KECCAK256 PUSH21 0xB1593D9F419A1C8634D33E704A2856B9704383E21C 0xDE 0xE9 0xC9 0xC8 0xE1 0xD4 TIMESTAMP 0xAD SGT PUSH32 0x64736F6C63430008070033000000000000000000000000000000000000000000 "
				},
				"gasEstimates": {
					"creation": {
						"codeDepositCost": "283200",
						"executionCost": "324",
						"totalCost": "283524"
					},
					"external": {
						"AskRefund()": "11721",
						"NaboPledge(uint256)": "infinite",
						"Nabofund(uint256,uint256)": "infinite",
						"claimFunds()": "6608",
						"pledgeOf(address)": "2880"
					}
				},
				"methodIdentifiers": {
					"AskRefund()": "8d4f9cc7",
					"NaboPledge(uint256)": "6b6c0cdf",
					"Nabofund(uint256,uint256)": "52dbea60",
					"claimFunds()": "ac307773",
					"pledgeOf(address)": "c5055f2f"
				}
			},
			"userdoc": {
				"kind": "user",
				"methods": {},
				"version": 1
			}
		}
	}
}